:100000004E000000000000000000000000000000A2
:1000100000000000000000000000000000000000E0
:020020000000DE
:1000220021E030E040E050E060E085E290E00E94B4
:100032006E00559AC0E260E085E290E00E949B006B
:1000420041E0811140E050E060E085E290E00E94F2
:1000520088002FEF81EE94E0215080409040E1F73C
:1000620000C0000060E085E290E00E949B0041E059
:10007200811140E050E060E085E290E00E9488005B
:100082008BB18C278BB92FEF89E698E12150804004
:100092009040E1F700C00000CECFA0E0B1E0ECE577
:1000A200F1E021E0A030B20770F080E091E0F1E0F1
:1000B20080309F0768F080E09AE0EC01CDBFDEBFA0
:1000C2000E941100FFCF819191918D939D93E9CF71
:1000D200FC0111921192CF01EACFFC0181E090E084
:1000E200DC0101C0AA0F6A95EAF78181232B61F432
:1000F2009A2F9095892381838081452B19F4892336
:10010200808308958A2BFCCF8A2B81830895FC017A
:1001120081E090E09C0101C0220F6A95EAF7622F0C
:100122008081452B21F46095682360830895822B9A
:1001320080830895FC01208181E090E0062E02C0B8
:10014200880F991F0A94E2F730E08223932302C0BA
:0A015200959587956A95E2F70895E8
:0400000300000022D7
:00000001FF
